{"abi":[{"type":"function","name":"ADMIN_ROLE","inputs":[],"outputs":[{"name":"","type":"bytes32","internalType":"bytes32"}],"stateMutability":"view"},{"type":"function","name":"DEFAULT_ADMIN_ROLE","inputs":[],"outputs":[{"name":"","type":"bytes32","internalType":"bytes32"}],"stateMutability":"view"},{"type":"function","name":"DISPUTE_ACTIVATION_PERIOD","inputs":[],"outputs":[{"name":"","type":"uint40","internalType":"uint40"}],"stateMutability":"view"},{"type":"function","name":"DISPUTE_COOL_DOWN_PERIOD","inputs":[],"outputs":[{"name":"","type":"uint40","internalType":"uint40"}],"stateMutability":"view"},{"type":"function","name":"DISPUTE_PERIOD","inputs":[],"outputs":[{"name":"","type":"uint40","internalType":"uint40"}],"stateMutability":"view"},{"type":"function","name":"MAX_DESCRIPTION_LENGTH","inputs":[],"outputs":[{"name":"","type":"uint256","internalType":"uint256"}],"stateMutability":"view"},{"type":"function","name":"MAX_DISPUTE_PERIOD","inputs":[],"outputs":[{"name":"","type":"uint40","internalType":"uint40"}],"stateMutability":"view"},{"type":"function","name":"MAX_EVIDENCE_COUNT","inputs":[],"outputs":[{"name":"","type":"uint256","internalType":"uint256"}],"stateMutability":"view"},{"type":"function","name":"MAX_VOTE_REASON_LENGTH","inputs":[],"outputs":[{"name":"","type":"uint256","internalType":"uint256"}],"stateMutability":"view"},{"type":"function","name":"MIN_DESCRIPTION_LENGTH","inputs":[],"outputs":[{"name":"","type":"uint256","internalType":"uint256"}],"stateMutability":"view"},{"type":"function","name":"MIN_DISPUTE_PERIOD","inputs":[],"outputs":[{"name":"","type":"uint40","internalType":"uint40"}],"stateMutability":"view"},{"type":"function","name":"MIN_EVIDENCE_COUNT","inputs":[],"outputs":[{"name":"","type":"uint256","internalType":"uint256"}],"stateMutability":"view"},{"type":"function","name":"MIN_VOTE_REASON_LENGTH","inputs":[],"outputs":[{"name":"","type":"uint256","internalType":"uint256"}],"stateMutability":"view"},{"type":"function","name":"MODERATOR_ROLE","inputs":[],"outputs":[{"name":"","type":"bytes32","internalType":"bytes32"}],"stateMutability":"view"},{"type":"function","name":"RESOLUTION_PERIOD","inputs":[],"outputs":[{"name":"","type":"uint40","internalType":"uint40"}],"stateMutability":"view"},{"type":"function","name":"RESOLVER_ROLE","inputs":[],"outputs":[{"name":"","type":"bytes32","internalType":"bytes32"}],"stateMutability":"view"},{"type":"function","name":"UPGRADE_INTERFACE_VERSION","inputs":[],"outputs":[{"name":"","type":"string","internalType":"string"}],"stateMutability":"view"},{"type":"function","name":"VOTING_PERIOD","inputs":[],"outputs":[{"name":"","type":"uint40","internalType":"uint40"}],"stateMutability":"view"},{"type":"function","name":"approve","inputs":[{"name":"to","type":"address","internalType":"address"},{"name":"tokenId","type":"uint256","internalType":"uint256"}],"outputs":[],"stateMutability":"nonpayable"},{"type":"function","name":"balanceOf","inputs":[{"name":"owner","type":"address","internalType":"address"}],"outputs":[{"name":"","type":"uint256","internalType":"uint256"}],"stateMutability":"view"},{"type":"function","name":"canCreateDispute","inputs":[{"name":"_user","type":"address","internalType":"address"}],"outputs":[{"name":"canCreate","type":"bool","internalType":"bool"},{"name":"remainingCooldown","type":"uint40","internalType":"uint40"}],"stateMutability":"view"},{"type":"function","name":"castVote","inputs":[{"name":"_disputeId","type":"uint256","internalType":"uint256"},{"name":"_supportsCreator","type":"bool","internalType":"bool"},{"name":"_reason","type":"string","internalType":"string"}],"outputs":[],"stateMutability":"nonpayable"},{"type":"function","name":"categoryCount","inputs":[{"name":"","type":"uint8","internalType":"enum DisputeEvents.DisputeCategory"}],"outputs":[{"name":"","type":"uint256","internalType":"uint256"}],"stateMutability":"view"},{"type":"function","name":"createDispute","inputs":[{"name":"params","type":"tuple","internalType":"struct DisputeStorage.CreateDisputeParams","components":[{"name":"respondent","type":"address","internalType":"address"},{"name":"title","type":"string","internalType":"string"},{"name":"description","type":"string","internalType":"string"},{"name":"category","type":"uint8","internalType":"enum DisputeEvents.DisputeCategory"},{"name":"priority","type":"uint8","internalType":"enum DisputeStorage.Priority"},{"name":"requiresEscrow","type":"bool","internalType":"bool"},{"name":"escrowAmount","type":"uint256","internalType":"uint256"},{"name":"customPeriod","type":"uint40","internalType":"uint40"},{"name":"evidenceDescriptions","type":"string[]","internalType":"string[]"},{"name":"evidenceHashes","type":"string[]","internalType":"string[]"},{"name":"evidenceSupportsCreator","type":"bool[]","internalType":"bool[]"}]}],"outputs":[{"name":"disputeId","type":"uint256","internalType":"uint256"}],"stateMutability":"payable"},{"type":"function","name":"disputeCounter","inputs":[],"outputs":[{"name":"","type":"uint256","internalType":"uint256"}],"stateMutability":"view"},{"type":"function","name":"disputeEvidences","inputs":[{"name":"","type":"uint256","internalType":"uint256"},{"name":"","type":"uint256","internalType":"uint256"}],"outputs":[{"name":"description","type":"string","internalType":"string"},{"name":"documentHash","type":"string","internalType":"string"},{"name":"submittedBy","type":"address","internalType":"address"},{"name":"timestamp","type":"uint40","internalType":"uint40"},{"name":"verified","type":"bool","internalType":"bool"},{"name":"supportsCreator","type":"bool","internalType":"bool"}],"stateMutability":"view"},{"type":"function","name":"disputeToNftToken","inputs":[{"name":"","type":"uint256","internalType":"uint256"}],"outputs":[{"name":"","type":"uint256","internalType":"uint256"}],"stateMutability":"view"},{"type":"function","name":"disputeVotes","inputs":[{"name":"","type":"uint256","internalType":"uint256"},{"name":"","type":"uint256","internalType":"uint256"}],"outputs":[{"name":"voter","type":"address","internalType":"address"},{"name":"supportsCreator","type":"bool","internalType":"bool"},{"name":"reason","type":"string","internalType":"string"},{"name":"timestamp","type":"uint40","internalType":"uint40"},{"name":"verified","type":"bool","internalType":"bool"}],"stateMutability":"view"},{"type":"function","name":"disputes","inputs":[{"name":"","type":"uint256","internalType":"uint256"}],"outputs":[{"name":"disputeCreatorAddress","type":"address","internalType":"address"},{"name":"respondentAddress","type":"address","internalType":"address"},{"name":"title","type":"string","internalType":"string"},{"name":"description","type":"string","internalType":"string"},{"name":"category","type":"uint8","internalType":"enum DisputeEvents.DisputeCategory"},{"name":"priority","type":"uint8","internalType":"enum DisputeStorage.Priority"},{"name":"escrowAmount","type":"uint256","internalType":"uint256"},{"name":"creationTime","type":"uint40","internalType":"uint40"},{"name":"activationTime","type":"uint40","internalType":"uint40"},{"name":"endTime","type":"uint40","internalType":"uint40"},{"name":"votingEndTime","type":"uint40","internalType":"uint40"},{"name":"resolutionDeadline","type":"uint40","internalType":"uint40"},{"name":"status","type":"uint8","internalType":"enum DisputeEvents.DisputeStatus"},{"name":"creatorVotes","type":"uint256","internalType":"uint256"},{"name":"respondentVotes","type":"uint256","internalType":"uint256"},{"name":"winner","type":"address","internalType":"address"},{"name":"winnerNftTokenId","type":"uint256","internalType":"uint256"},{"name":"resolutionSummary","type":"string","internalType":"string"},{"name":"requiresEscrow","type":"bool","internalType":"bool"},{"name":"votingStartTime","type":"uint40","internalType":"uint40"}],"stateMutability":"view"},{"type":"function","name":"evidenceSubmitters","inputs":[{"name":"","type":"uint256","internalType":"uint256"},{"name":"","type":"uint256","internalType":"uint256"}],"outputs":[{"name":"","type":"address","internalType":"address"}],"stateMutability":"view"},{"type":"function","name":"getApproved","inputs":[{"name":"tokenId","type":"uint256","internalType":"uint256"}],"outputs":[{"name":"","type":"address","internalType":"address"}],"stateMutability":"view"},{"type":"function","name":"getCurrentTokenId","inputs":[],"outputs":[{"name":"","type":"uint256","internalType":"uint256"}],"stateMutability":"view"},{"type":"function","name":"getDisputeBasicInfo","inputs":[{"name":"_disputeId","type":"uint256","internalType":"uint256"}],"outputs":[{"name":"creator","type":"address","internalType":"address"},{"name":"respondent","type":"address","internalType":"address"},{"name":"title","type":"string","internalType":"string"},{"name":"description","type":"string","internalType":"string"},{"name":"category","type":"uint8","internalType":"enum DisputeEvents.DisputeCategory"},{"name":"priority","type":"uint8","internalType":"enum DisputeStorage.Priority"},{"name":"status","type":"uint8","internalType":"enum DisputeEvents.DisputeStatus"}],"stateMutability":"view"},{"type":"function","name":"getDisputeEvidence","inputs":[{"name":"_disputeId","type":"uint256","internalType":"uint256"}],"outputs":[{"name":"","type":"tuple[]","internalType":"struct DisputeStorage.Evidence[]","components":[{"name":"description","type":"string","internalType":"string"},{"name":"documentHash","type":"string","internalType":"string"},{"name":"submittedBy","type":"address","internalType":"address"},{"name":"timestamp","type":"uint40","internalType":"uint40"},{"name":"verified","type":"bool","internalType":"bool"},{"name":"supportsCreator","type":"bool","internalType":"bool"}]}],"stateMutability":"view"},{"type":"function","name":"getDisputeResults","inputs":[{"name":"_disputeId","type":"uint256","internalType":"uint256"}],"outputs":[{"name":"creatorVotes","type":"uint256","internalType":"uint256"},{"name":"respondentVotes","type":"uint256","internalType":"uint256"},{"name":"winner","type":"address","internalType":"address"}],"stateMutability":"view"},{"type":"function","name":"getDisputeTimestamps","inputs":[{"name":"_disputeId","type":"uint256","internalType":"uint256"}],"outputs":[{"name":"creationTime","type":"uint40","internalType":"uint40"},{"name":"endTime","type":"uint40","internalType":"uint40"},{"name":"votingEndTime","type":"uint40","internalType":"uint40"}],"stateMutability":"view"},{"type":"function","name":"getDisputeVotes","inputs":[{"name":"_disputeId","type":"uint256","internalType":"uint256"}],"outputs":[{"name":"","type":"tuple[]","internalType":"struct DisputeStorage.Vote[]","components":[{"name":"voter","type":"address","internalType":"address"},{"name":"supportsCreator","type":"bool","internalType":"bool"},{"name":"reason","type":"string","internalType":"string"},{"name":"timestamp","type":"uint40","internalType":"uint40"},{"name":"verified","type":"bool","internalType":"bool"}]}],"stateMutability":"view"},{"type":"function","name":"getEvidenceSubmitters","inputs":[{"name":"_disputeId","type":"uint256","internalType":"uint256"}],"outputs":[{"name":"","type":"address[]","internalType":"address[]"}],"stateMutability":"view"},{"type":"function","name":"getRoleAdmin","inputs":[{"name":"role","type":"bytes32","internalType":"bytes32"}],"outputs":[{"name":"","type":"bytes32","internalType":"bytes32"}],"stateMutability":"view"},{"type":"function","name":"getUserDisputes","inputs":[{"name":"_user","type":"address","internalType":"address"}],"outputs":[{"name":"","type":"uint256[]","internalType":"uint256[]"}],"stateMutability":"view"},{"type":"function","name":"grantRole","inputs":[{"name":"role","type":"bytes32","internalType":"bytes32"},{"name":"account","type":"address","internalType":"address"}],"outputs":[],"stateMutability":"nonpayable"},{"type":"function","name":"hasRole","inputs":[{"name":"role","type":"bytes32","internalType":"bytes32"},{"name":"account","type":"address","internalType":"address"}],"outputs":[{"name":"","type":"bool","internalType":"bool"}],"stateMutability":"view"},{"type":"function","name":"hasSubmittedEvidence","inputs":[{"name":"","type":"uint256","internalType":"uint256"},{"name":"","type":"address","internalType":"address"}],"outputs":[{"name":"","type":"bool","internalType":"bool"}],"stateMutability":"view"},{"type":"function","name":"hasVoted","inputs":[{"name":"","type":"uint256","internalType":"uint256"},{"name":"","type":"address","internalType":"address"}],"outputs":[{"name":"","type":"bool","internalType":"bool"}],"stateMutability":"view"},{"type":"function","name":"initialize","inputs":[{"name":"_admin","type":"address","internalType":"address"}],"outputs":[],"stateMutability":"nonpayable"},{"type":"function","name":"isApprovedForAll","inputs":[{"name":"owner","type":"address","internalType":"address"},{"name":"operator","type":"address","internalType":"address"}],"outputs":[{"name":"","type":"bool","internalType":"bool"}],"stateMutability":"view"},{"type":"function","name":"isBlacklisted","inputs":[{"name":"","type":"address","internalType":"address"}],"outputs":[{"name":"","type":"bool","internalType":"bool"}],"stateMutability":"view"},{"type":"function","name":"lastDisputeTime","inputs":[{"name":"","type":"address","internalType":"address"}],"outputs":[{"name":"","type":"uint40","internalType":"uint40"}],"stateMutability":"view"},{"type":"function","name":"name","inputs":[],"outputs":[{"name":"","type":"string","internalType":"string"}],"stateMutability":"view"},{"type":"function","name":"nftTokenToDispute","inputs":[{"name":"","type":"uint256","internalType":"uint256"}],"outputs":[{"name":"","type":"uint256","internalType":"uint256"}],"stateMutability":"view"},{"type":"function","name":"ownerOf","inputs":[{"name":"tokenId","type":"uint256","internalType":"uint256"}],"outputs":[{"name":"","type":"address","internalType":"address"}],"stateMutability":"view"},{"type":"function","name":"pause","inputs":[],"outputs":[],"stateMutability":"nonpayable"},{"type":"function","name":"paused","inputs":[],"outputs":[{"name":"","type":"bool","internalType":"bool"}],"stateMutability":"view"},{"type":"function","name":"proxiableUUID","inputs":[],"outputs":[{"name":"","type":"bytes32","internalType":"bytes32"}],"stateMutability":"view"},{"type":"function","name":"renounceRole","inputs":[{"name":"role","type":"bytes32","internalType":"bytes32"},{"name":"callerConfirmation","type":"address","internalType":"address"}],"outputs":[],"stateMutability":"nonpayable"},{"type":"function","name":"resolveDispute","inputs":[{"name":"_disputeId","type":"uint256","internalType":"uint256"}],"outputs":[],"stateMutability":"nonpayable"},{"type":"function","name":"revokeRole","inputs":[{"name":"role","type":"bytes32","internalType":"bytes32"},{"name":"account","type":"address","internalType":"address"}],"outputs":[],"stateMutability":"nonpayable"},{"type":"function","name":"safeTransferFrom","inputs":[{"name":"from","type":"address","internalType":"address"},{"name":"to","type":"address","internalType":"address"},{"name":"tokenId","type":"uint256","internalType":"uint256"}],"outputs":[],"stateMutability":"nonpayable"},{"type":"function","name":"safeTransferFrom","inputs":[{"name":"from","type":"address","internalType":"address"},{"name":"to","type":"address","internalType":"address"},{"name":"tokenId","type":"uint256","internalType":"uint256"},{"name":"data","type":"bytes","internalType":"bytes"}],"outputs":[],"stateMutability":"nonpayable"},{"type":"function","name":"setApprovalForAll","inputs":[{"name":"operator","type":"address","internalType":"address"},{"name":"approved","type":"bool","internalType":"bool"}],"outputs":[],"stateMutability":"nonpayable"},{"type":"function","name":"setUserBlacklist","inputs":[{"name":"_user","type":"address","internalType":"address"},{"name":"_blacklisted","type":"bool","internalType":"bool"}],"outputs":[],"stateMutability":"nonpayable"},{"type":"function","name":"startVoting","inputs":[{"name":"_disputeId","type":"uint256","internalType":"uint256"}],"outputs":[],"stateMutability":"nonpayable"},{"type":"function","name":"submitEvidence","inputs":[{"name":"_disputeId","type":"uint256","internalType":"uint256"},{"name":"_description","type":"string","internalType":"string"},{"name":"_documentHash","type":"string","internalType":"string"},{"name":"_supportsCreator","type":"bool","internalType":"bool"}],"outputs":[],"stateMutability":"nonpayable"},{"type":"function","name":"supportsInterface","inputs":[{"name":"interfaceId","type":"bytes4","internalType":"bytes4"}],"outputs":[{"name":"","type":"bool","internalType":"bool"}],"stateMutability":"view"},{"type":"function","name":"symbol","inputs":[],"outputs":[{"name":"","type":"string","internalType":"string"}],"stateMutability":"view"},{"type":"function","name":"tokenURI","inputs":[{"name":"tokenId","type":"uint256","internalType":"uint256"}],"outputs":[{"name":"","type":"string","internalType":"string"}],"stateMutability":"view"},{"type":"function","name":"transferFrom","inputs":[{"name":"from","type":"address","internalType":"address"},{"name":"to","type":"address","internalType":"address"},{"name":"tokenId","type":"uint256","internalType":"uint256"}],"outputs":[],"stateMutability":"nonpayable"},{"type":"function","name":"transferTieNFT","inputs":[{"name":"_tokenId","type":"uint256","internalType":"uint256"},{"name":"_to","type":"address","internalType":"address"}],"outputs":[],"stateMutability":"nonpayable"},{"type":"function","name":"unpause","inputs":[],"outputs":[],"stateMutability":"nonpayable"},{"type":"function","name":"upgradeToAndCall","inputs":[{"name":"newImplementation","type":"address","internalType":"address"},{"name":"data","type":"bytes","internalType":"bytes"}],"outputs":[],"stateMutability":"payable"},{"type":"function","name":"userDisputeCount","inputs":[{"name":"","type":"address","internalType":"address"}],"outputs":[{"name":"","type":"uint256","internalType":"uint256"}],"stateMutability":"view"},{"type":"function","name":"userDisputes","inputs":[{"name":"","type":"address","internalType":"address"},{"name":"","type":"uint256","internalType":"uint256"}],"outputs":[{"name":"","type":"uint256","internalType":"uint256"}],"stateMutability":"view"},{"type":"function","name":"version","inputs":[],"outputs":[{"name":"","type":"string","internalType":"string"}],"stateMutability":"pure"},{"type":"event","name":"Approval","inputs":[{"name":"owner","type":"address","indexed":true,"internalType":"address"},{"name":"approved","type":"address","indexed":true,"internalType":"address"},{"name":"tokenId","type":"uint256","indexed":true,"internalType":"uint256"}],"anonymous":false},{"type":"event","name":"ApprovalForAll","inputs":[{"name":"owner","type":"address","indexed":true,"internalType":"address"},{"name":"operator","type":"address","indexed":true,"internalType":"address"},{"name":"approved","type":"bool","indexed":false,"internalType":"bool"}],"anonymous":false},{"type":"event","name":"BatchMetadataUpdate","inputs":[{"name":"_fromTokenId","type":"uint256","indexed":false,"internalType":"uint256"},{"name":"_toTokenId","type":"uint256","indexed":false,"internalType":"uint256"}],"anonymous":false},{"type":"event","name":"DisputeCreated","inputs":[{"name":"disputeId","type":"uint256","indexed":true,"internalType":"uint256"},{"name":"creator","type":"address","indexed":true,"internalType":"address"},{"name":"respondent","type":"address","indexed":true,"internalType":"address"},{"name":"title","type":"string","indexed":false,"internalType":"string"},{"name":"category","type":"uint8","indexed":false,"internalType":"enum DisputeEvents.DisputeCategory"},{"name":"escrowAmount","type":"uint256","indexed":false,"internalType":"uint256"}],"anonymous":false},{"type":"event","name":"DisputeNFTMinted","inputs":[{"name":"disputeId","type":"uint256","indexed":true,"internalType":"uint256"},{"name":"winner","type":"address","indexed":true,"internalType":"address"},{"name":"tokenId","type":"uint256","indexed":true,"internalType":"uint256"},{"name":"tokenURI","type":"string","indexed":false,"internalType":"string"}],"anonymous":false},{"type":"event","name":"DisputeResolved","inputs":[{"name":"disputeId","type":"uint256","indexed":true,"internalType":"uint256"},{"name":"winner","type":"address","indexed":true,"internalType":"address"},{"name":"creatorVotes","type":"uint256","indexed":false,"internalType":"uint256"},{"name":"respondentVotes","type":"uint256","indexed":false,"internalType":"uint256"},{"name":"nftTokenId","type":"uint256","indexed":false,"internalType":"uint256"}],"anonymous":false},{"type":"event","name":"DisputeStatusChanged","inputs":[{"name":"disputeId","type":"uint256","indexed":true,"internalType":"uint256"},{"name":"oldStatus","type":"uint8","indexed":false,"internalType":"enum DisputeEvents.DisputeStatus"},{"name":"newStatus","type":"uint8","indexed":false,"internalType":"enum DisputeEvents.DisputeStatus"},{"name":"changedBy","type":"address","indexed":false,"internalType":"address"}],"anonymous":false},{"type":"event","name":"EvidenceSubmitted","inputs":[{"name":"disputeId","type":"uint256","indexed":true,"internalType":"uint256"},{"name":"submitter","type":"address","indexed":true,"internalType":"address"},{"name":"description","type":"string","indexed":false,"internalType":"string"},{"name":"documentHash","type":"string","indexed":false,"internalType":"string"},{"name":"supportsCreator","type":"bool","indexed":false,"internalType":"bool"}],"anonymous":false},{"type":"event","name":"Initialized","inputs":[{"name":"version","type":"uint64","indexed":false,"internalType":"uint64"}],"anonymous":false},{"type":"event","name":"MetadataUpdate","inputs":[{"name":"_tokenId","type":"uint256","indexed":false,"internalType":"uint256"}],"anonymous":false},{"type":"event","name":"Paused","inputs":[{"name":"account","type":"address","indexed":false,"internalType":"address"}],"anonymous":false},{"type":"event","name":"RoleAdminChanged","inputs":[{"name":"role","type":"bytes32","indexed":true,"internalType":"bytes32"},{"name":"previousAdminRole","type":"bytes32","indexed":true,"internalType":"bytes32"},{"name":"newAdminRole","type":"bytes32","indexed":true,"internalType":"bytes32"}],"anonymous":false},{"type":"event","name":"RoleGranted","inputs":[{"name":"role","type":"bytes32","indexed":true,"internalType":"bytes32"},{"name":"account","type":"address","indexed":true,"internalType":"address"},{"name":"sender","type":"address","indexed":true,"internalType":"address"}],"anonymous":false},{"type":"event","name":"RoleRevoked","inputs":[{"name":"role","type":"bytes32","indexed":true,"internalType":"bytes32"},{"name":"account","type":"address","indexed":true,"internalType":"address"},{"name":"sender","type":"address","indexed":true,"internalType":"address"}],"anonymous":false},{"type":"event","name":"TieNFTTransferred","inputs":[{"name":"tokenId","type":"uint256","indexed":true,"internalType":"uint256"},{"name":"disputeId","type":"uint256","indexed":true,"internalType":"uint256"},{"name":"to","type":"address","indexed":true,"internalType":"address"}],"anonymous":false},{"type":"event","name":"Transfer","inputs":[{"name":"from","type":"address","indexed":true,"internalType":"address"},{"name":"to","type":"address","indexed":true,"internalType":"address"},{"name":"tokenId","type":"uint256","indexed":true,"internalType":"uint256"}],"anonymous":false},{"type":"event","name":"Unpaused","inputs":[{"name":"account","type":"address","indexed":false,"internalType":"address"}],"anonymous":false},{"type":"event","name":"Upgraded","inputs":[{"name":"implementation","type":"address","indexed":true,"internalType":"address"}],"anonymous":false},{"type":"event","name":"VoteCast","inputs":[{"name":"disputeId","type":"uint256","indexed":true,"internalType":"uint256"},{"name":"voter","type":"address","indexed":true,"internalType":"address"},{"name":"supportsCreator","type":"bool","indexed":false,"internalType":"bool"},{"name":"reason","type":"string","indexed":false,"internalType":"string"}],"anonymous":false},{"type":"event","name":"VotingStarted","inputs":[{"name":"disputeId","type":"uint256","indexed":true,"internalType":"uint256"},{"name":"votingEndTime","type":"uint40","indexed":false,"internalType":"uint40"}],"anonymous":false},{"type":"error","name":"AccessControlBadConfirmation","inputs":[]},{"type":"error","name":"AccessControlUnauthorizedAccount","inputs":[{"name":"account","type":"address","internalType":"address"},{"name":"neededRole","type":"bytes32","internalType":"bytes32"}]},{"type":"error","name":"AddressEmptyCode","inputs":[{"name":"target","type":"address","internalType":"address"}]},{"type":"error","name":"AlreadyVoted","inputs":[]},{"type":"error","name":"DisputeAlreadyResolved","inputs":[]},{"type":"error","name":"DisputeCooldownActive","inputs":[{"name":"remainingTime","type":"uint40","internalType":"uint40"}]},{"type":"error","name":"DisputeExpired","inputs":[]},{"type":"error","name":"DisputeNotActive","inputs":[]},{"type":"error","name":"DisputeNotFound","inputs":[]},{"type":"error","name":"DisputeNotInVotingPhase","inputs":[]},{"type":"error","name":"ERC1967InvalidImplementation","inputs":[{"name":"implementation","type":"address","internalType":"address"}]},{"type":"error","name":"ERC1967NonPayable","inputs":[]},{"type":"error","name":"ERC721IncorrectOwner","inputs":[{"name":"sender","type":"address","internalType":"address"},{"name":"tokenId","type":"uint256","internalType":"uint256"},{"name":"owner","type":"address","internalType":"address"}]},{"type":"error","name":"ERC721InsufficientApproval","inputs":[{"name":"operator","type":"address","internalType":"address"},{"name":"tokenId","type":"uint256","internalType":"uint256"}]},{"type":"error","name":"ERC721InvalidApprover","inputs":[{"name":"approver","type":"address","internalType":"address"}]},{"type":"error","name":"ERC721InvalidOperator","inputs":[{"name":"operator","type":"address","internalType":"address"}]},{"type":"error","name":"ERC721InvalidOwner","inputs":[{"name":"owner","type":"address","internalType":"address"}]},{"type":"error","name":"ERC721InvalidReceiver","inputs":[{"name":"receiver","type":"address","internalType":"address"}]},{"type":"error","name":"ERC721InvalidSender","inputs":[{"name":"sender","type":"address","internalType":"address"}]},{"type":"error","name":"ERC721NonexistentToken","inputs":[{"name":"tokenId","type":"uint256","internalType":"uint256"}]},{"type":"error","name":"EnforcedPause","inputs":[]},{"type":"error","name":"ExpectedPause","inputs":[]},{"type":"error","name":"FailedCall","inputs":[]},{"type":"error","name":"InvalidDescriptionLength","inputs":[]},{"type":"error","name":"InvalidDisputeParameters","inputs":[]},{"type":"error","name":"InvalidEscrowAmount","inputs":[]},{"type":"error","name":"InvalidEvidenceCount","inputs":[]},{"type":"error","name":"InvalidInitialization","inputs":[]},{"type":"error","name":"NotEvidenceSubmitter","inputs":[]},{"type":"error","name":"NotInitializing","inputs":[]},{"type":"error","name":"ReentrancyGuardReentrantCall","inputs":[]},{"type":"error","name":"UUPSUnauthorizedCallContext","inputs":[]},{"type":"error","name":"UUPSUnsupportedProxiableUUID","inputs":[{"name":"slot","type":"bytes32","internalType":"bytes32"}]},{"type":"error","name":"UnauthorizedAction","inputs":[]},{"type":"error","name":"UserBlacklisted","inputs":[]},{"type":"error","name":"VotingEnded","inputs":[]},{"type":"error","name":"VotingNotStarted","inputs":[]}],"bytecode":{"object":"0x60a0806040523460295730608052615899908161002e82396080518181816128c801526129760152f35b5f80fdfe6080806040526004361015610012575f80fd5b5f3560e01c90816301ffc9a7146141175750806301ffdb01146140845780630397640c1461406957806306fdde0314613fac578063081812fc14613f63578063095ea7b314613e775780631f9f5224146134d357806323b872dd146134bc578063248a9ca31461347d5780632ea1b54f146132c75780632f2ff15d1461327d57806336568abe146132395780633d2f5bda146130125780633dc0415914612fba5780633f4ba83a14612f3c578063420c6c2114612f215780634231d0eb14612bdc57806342842e0e14612bb35780634385963214612b6a578063460e395214612b4057806346f4e14e14612b065780634f1ef2861461293957806350f905941461291c57806352d1902d146128b657806354fd4d501461286f5780635618923614612852578063564a565d146126a55780635c975abb1461267757806362aef6f0146121b05780636352211e146121805780636abcd85d14611fe25780636cb93d3214611fc557806370a0823114611f7657806375b238fc14611f3c578063772006ff14611eda57806378fab26014611ea0578063797669c914611e665780637d36f4d314611e4a57806380af2e8a146119685780638456cb5914611dd957806388d0f1b414611dbe5780638cf6e09d14611d0f57806391d1485414611cba5780639201ea0a14611c9e57806395d89b4114611bbc5780639859d57314611b73578063a19fe0261461196d578063a217fddf14611b59578063a22cb46514611abb578063a5bbe22b14611a9e578063ad3cb1cc14611a57578063ae7dba1f14611972578063b1610d7e1461196d578063b195b01c14611968578063b88d4fde1461191a578063bb2a2088146118fe578063bfb0a55b1461184a578063c15a58da146117e5578063c2b7b86814610d2a578063c473609214610baf578063c4a83a0e14610b77578063c4d66de81461068c578063c72ba057146105ad578063c87b56dd14610576578063cc1677901461053a578063ccddf0b0146104e9578063d547741f14610498578063d69613cc1461046e578063e65a9bf014610426578063e92487a2146103e7578063e985e9c51461039b578063f1d11c97146103805763fe575a871461033f575f80fd5b3461037c57602036600319011261037c576001600160a01b0361036061435a565b165f52600b602052602060ff60405f2054166040519015158152f35b5f80fd5b3461037c575f36600319011261037c57602060405160328152f35b3461037c57604036600319011261037c576103b461435a565b6103c56103bf614370565b916143f8565b9060018060a01b03165f52602052602060ff60405f2054166040519015158152f35b3461037c57602036600319011261037c576001600160a01b0361040861435a565b165f52600a602052602064ffffffffff60405f205416604051908152f35b3461037c57610434366141b6565b905f52600760205260405f20805482101561037c5760209161045591614430565b905460405160039290921b1c6001600160a01b03168152f35b3461037c57602036600319011261037c576004355f52600d602052602060405f2054604051908152f35b3461037c57604036600319011261037c576104e76004356104b7614370565b906104e26104dd825f525f5160206157a45f395f51905f52602052600160405f20015490565b614eb4565b615119565b005b3461037c57604036600319011261037c576104e761050561435a565b61050d614472565b90610516614e45565b60018060a01b03165f52600b60205260405f209060ff801983541691151516179055565b3461037c57602036600319011261037c57600435600781101561037c57610560816144f0565b5f52600c602052602060405f2054604051908152f35b3461037c57602036600319011261037c576105a9610595600435615201565b604051918291602083526020830190614335565b0390f35b3461037c57602036600319011261037c576004355f548110801590610684575b610675575f52600760205260405f20604051806020835491828152019081935f5260205f20905f5b818110610656575050508161060b910382614253565b604051918291602083019060208452518091526040830191905f5b818110610634575050500390f35b82516001600160a01b0316845285945060209384019390920191600101610626565b82546001600160a01b03168452602090930192600192830192016105f5565b63084a15e160e31b5f5260045ffd5b5080156105cd565b3461037c57602036600319011261037c576106a561435a565b5f5160206158245f395f51905f525460ff8160401c1615906001600160401b03811680159081610b6f575b6001149081610b65575b159081610b5c575b50610b4d5767ffffffffffffffff1981166001175f5160206158245f395f51905f525581610b21575b506107146152cc565b61071c6152cc565b6107246152cc565b61072c6152cc565b60015f5160206157e45f395f51905f52556107456152cc565b6040908151926107558385614253565b6014845273111a5cdc1d5d1954995cdbdb1d5d1a5bdb93919560621b60208501528251936107838486614253565b60078552664449535055544560c81b602086015261079f6152cc565b6107a76152cc565b8051906001600160401b038211610a03576107cf5f5160206157645f395f51905f52546141e5565b601f8111610ab2575b50602090601f8311600114610a175761080892915f9183610908575b50508160011b915f199060031b1c19161790565b5f5160206157645f395f51905f52555b83516001600160401b038111610a035761083f5f5160206158445f395f51905f52546141e5565b601f8111610994575b506020601f821160011461091357908061087c926108a39596975f926109085750508160011b915f199060031b1c19161790565b5f5160206158445f395f51905f52555b6108946152cc565b61089d81614efa565b50614fa9565b5060015f555f6001556108b257005b60207fc7f505b2f371ae2175ee4913f4499e1f2633a7b5936321eed1cdaeb6115181d29168ff0000000000000000195f5160206158245f395f51905f5254165f5160206158245f395f51905f52555160018152a1005b0151905087806107f4565b601f198216955f5160206158445f395f51905f525f52815f20965f5b81811061097c5750916108a395969791846001959410610964575b505050811b015f5160206158445f395f51905f525561088c565b01515f1960f88460031b161c1916905586808061094a565b8383015189556001909801976020938401930161092f565b5f5160206158445f395f51905f525f527ff4bad0a69248f59680a4f2b3000328cec71a413447c96781cfe5996daa8c456e601f830160051c810191602084106109f9575b601f0160051c01905b8181106109ee5750610848565b5f81556001016109e1565b90915081906109d8565b634e487b7160e01b5f52604160045260245ffd5b90601f198316915f5160206157645f395f51905f525f527f37c58c799b6609234b945e882912ee9ad34948a1dfaa20a97485e1a7752bbf81925f5b818110610a9a5750908460019594939210610a82575b505050811b015f5160206157645f395f51905f5255610818565b01515f1960f88460031b161c19169055868080610a68565b92936020600181928786015181550195019301610a52565b5f5160206157645f395f51905f525f527f37c58c799b6609234b945e882912ee9ad34948a1dfaa20a97485e1a7752bbf81601f840160051c81019160208510610b17575b601f0160051c01905b818110610b0c57506107d8565b5f8155600101610aff565b9091508190610af6565b68ffffffffffffffffff191668010000000000000001175f5160206158245f395f51905f52558261070b565b63f92ee8a960e01b5f5260045ffd5b905015846106e2565b303b1591506106da565b8391506106d0565b3461037c57602036600319011261037c576001600160a01b03610b9861435a565b165f526009602052602060405f2054604051908152f35b3461037c57602036600319011261037c576004355f548110801590610d22575b610675575f52600460205260405f20805490610bea82614860565b91610bf86040519384614253565b8083526020830180925f5260205f205f915b838310610cba57848660405191829160208301906020845251809152604083019060408160051b85010192915f905b828210610c4857505050500390f35b919360019193955060208091603f19898203018552875190848060a01b03825116815282820151151583820152608080610c91604085015160a0604086015260a0850190614335565b9364ffffffffff6060820151166060850152015115159101529601920192018594939192610c39565b60036020600192604051610ccd81614238565b60ff8654868060a01b038116835260a01c16151583820152610cf0858701614274565b604082015260ff600287015464ffffffffff8116606084015260281c1615156080820152815201920192019190610c0a565b508015610bcf565b3461037c57602036600319011261037c57600435610d466149bf565b5f5481108015906117dd575b61067557610d5e6149e6565b805f52600260205260405f2064ffffffffff6006820154610d90600260ff8360c81c16610d8a816144f0565b146151b5565b60781c1642111561179857600901546001600160a01b031661175357805f52600260205260405f2090610dc282615289565b6009840180546001600160a01b0319166001600160a01b03841617905560068401805460ff60c81b1916600160ca1b1790555f83815260026020526040902091939181156115f857600b610e1960078301546152f7565b91610ef360196014610e2e60088501546152f7565b9560516040519788927f5265736f6c76656420627920636f6d6d756e69747920766f7465202d205449456020850152700171021b932b0ba37b9103b37ba32b99d1607d1b6040850152610e8a8151809260208688019101614314565b830173016102932b9b837b73232b73a103b37ba32b99d160651b83820152610ebc825180936020606585019101614314565b01017f2e204e4654206d696e74656420746f20636f6e74726163742e00000000000000838201520301600619810186520184614253565b01908051906001600160401b038211610a0357610f1a82610f1485546141e5565b85614a72565b602090601f831160011461159557610f4892915f918361158a5750508160011b915f199060031b1c19161790565b90555b610f5660015461458c565b60018190556001600160a01b038516949091908515611577576001600160a01b03610f818483614d63565b1661156457611106610f928661541a565b61110160046026896038610fa582615530565b956012610fba610fb4856152f7565b946152f7565b603e604051998a967f7b226e616d65223a202244697370757465205265736f6c7574696f6e202300006020890152610ffb815180926020868c019101614314565b8701711116113232b9b1b934b83a34b7b7111d101160711b8382015261102b825180936020605085019101614314565b010170222c2261747472696275746573223a205b60781b838201527f7b2274726169745f74797065223a202244697370757465204944222c20227661602382015266363ab2911d101160c91b6043820152611090825180936020604a85019101614314565b010162089f4b60ea1b838201527f7b2274726169745f74797065223a2022526573756c74222c202276616c756522603b820152621d101160e91b605b8201526110e3825180936020605e85019101614314565b010163227d5d7d60e01b838201520301601b19810184520182614253565b6155e5565b61115a603d60405180937f646174613a6170706c69636174696f6e2f6a736f6e3b6261736536342c00000060208301526111498151809260208686019101614314565b81010301601f198101835282614253565b835f527f0542a41881ee128a365a727b282c86fa859579490b9bb45aab8503648c8e790060205260405f2081516001600160401b038111610a0357859282826111af8b946111a98e97546141e5565b84614a72565b6020601f82116001146114d55791611202827f38eb89759f94accf78d29593953af1d4434a8dcae258866ad7c2675bc92549d4959361125f955f916114ca575b508160011b915f199060031b1c19161790565b90555b7ff8e1a15aba9398e019f0b49df1a4fde98ee17ae345cb5f6b5e2c27f5033e8ce76020604051888152a1835f52600d6020528560405f2055855f52600e6020528360405f2055604051918291602083526020830190614335565b0390a482600a850155845f52600260205260405f209160ff600c84015416806114bd575b6112de575b50505081606091600860077ff2b306c6988ab9d9ba081e4ded2e7c9fbc64fc27639527f2b7bf0bb19194ea9295015492015460405192835260208301526040820152a360015f5160206157e45f395f51905f5255005b1561143957506005810154908160011c916001198116838104600214841517156113d65761130b91614d27565b905f8080808660018060a01b038654165af1611325614d34565b50156113ea576001808060a01b03910154169082018092116113d6575f80809381935af1611351614d34565b5015611385577ff2b306c6988ab9d9ba081e4ded2e7c9fbc64fc27639527f2b7bf0bb19194ea92916060915b918193611288565b60405162461bcd60e51b8152602060048201526024808201527f457363726f77207472616e7366657220746f20726573706f6e64656e742066616044820152631a5b195960e21b6064820152608490fd5b634e487b7160e01b5f52601160045260245ffd5b60405162461bcd60e51b815260206004820152602160248201527f457363726f77207472616e7366657220746f2063726561746f72206661696c656044820152601960fa1b6064820152608490fd5b5f80809392600582940154905af161144f614d34565b501561147f577ff2b306c6988ab9d9ba081e4ded2e7c9fbc64fc27639527f2b7bf0bb19194ea929160609161137d565b60405162461bcd60e51b8152602060048201526016602482015275115cd8dc9bddc81d1c985b9cd9995c8819985a5b195960521b6044820152606490fd5b5060058301541515611283565b90508401515f6111ef565b601f19821690835f52805f20915f5b81811061154357509261125f9492600192827f38eb89759f94accf78d29593953af1d4434a8dcae258866ad7c2675bc92549d498961061152b575b5050811b019055611205565b8501515f1960f88460031b161c191690558f8061151f565b8287015184558c99508f98508e9750600190930192602092830192016114e4565b6339e3563760e11b5f525f60045260245ffd5b633250574960e11b5f525f60045260245ffd5b0151905088806107f4565b90601f19831691845f52815f20925f5b8181106115e057509084600195949392106115c8575b505050811b019055610f4b565b01515f1960f88460031b161c191690558780806115bb565b929360206001819287860151815501950193016115a5565b600b61160760078301546152f7565b916116b3601461161a60088401546152f7565b94604b6040519687927f5265736f6c76656420627920636f6d6d756e69747920766f74652e204372656160208501526a03a37b9103b37ba32b99d160ad1b60408501526116708151809260208688019101614314565b830173016102932b9b837b73232b73a103b37ba32b99d160651b838201526116a2825180936020605f85019101614314565b01010301601f198101855284614253565b01908051906001600160401b038211610a03576116d482610f1485546141e5565b602090601f83116001146117095761170292915f918361158a5750508160011b915f199060031b1c19161790565b9055610f4b565b90601f19831691845f52815f20925f5b81811061173b57509084600195949392106115c857505050811b019055610f4b565b92936020600181928786015181550195019301611719565b60405162461bcd60e51b815260206004820152601860248201527f4469737075746520616c7265616479207265736f6c76656400000000000000006044820152606490fd5b60405162461bcd60e51b815260206004820152601760248201527f566f74696e6720706572696f64206e6f7420656e6465640000000000000000006044820152606490fd5b508015610d52565b3461037c57602036600319011261037c576004355f548110801590611842575b610675575f526002602052606060405f20600781015490600881015490600960018060a01b03910154169060405192835260208301526040820152f35b508015611805565b3461037c57602036600319011261037c576001600160a01b0361186b61435a565b165f52600860205260405f20604051806020835491828152019081935f5260205f20905f5b8181106118e857505050816118a6910382614253565b604051918291602083019060208452518091526040830191905f5b8181106118cf575050500390f35b82518452859450602093840193909201916001016118c1565b8254845260209093019260019283019201611890565b3461037c575f36600319011261037c5760206040516101f48152f35b3461037c57608036600319011261037c5761193361435a565b61193b614370565b606435916001600160401b03831161037c5761195e6104e79336906004016144d2565b9160443591614877565b61451b565b614538565b3461037c57602036600319011261037c576004355f548110801590611a4f575b610675575f52600260205260405f2060018060a01b0381541660018060a01b0360018301541691600481015490611a3d60ff831692611a1e60ff600685015460c81c1693611a106119f160036119ea60028501614274565b9301614274565b91604051998a998a5260208a015260e060408a015260e0890190614335565b908782036060890152614335565b93611a28816144f0565b608086015260ff60a086019160081c1661450e565b611a46816144f0565b60c08301520390f35b508015611992565b3461037c575f36600319011261037c576105a9604051611a78604082614253565b60058152640352e302e360dc1b6020820152604051918291602083526020830190614335565b3461037c575f36600319011261037c57602060405162278d008152f35b3461037c57604036600319011261037c57611ad461435a565b611adc614472565b6001600160a01b03909116908115611b4657611af7336143f8565b825f52602052611b168160405f209060ff801983541691151516179055565b60405190151581527f17307eab39ab6107e8899845ad3d59bd9653f200f220920489ca2b5937696c3160203392a3005b50630b61174360e31b5f5260045260245ffd5b3461037c575f36600319011261037c5760206040515f8152f35b3461037c57604036600319011261037c57611b8c614370565b6004355f52600660205260405f209060018060a01b03165f52602052602060ff60405f2054166040519015158152f35b3461037c575f36600319011261037c576040515f5f5160206158445f395f51905f5254611be8816141e5565b8084529060018116908115611c7a5750600114611c10575b6105a98361059581850382614253565b5f5160206158445f395f51905f525f9081527ff4bad0a69248f59680a4f2b3000328cec71a413447c96781cfe5996daa8c456e939250905b808210611c6057509091508101602001610595611c00565b919260018160209254838588010152019101909291611c48565b60ff191660208086019190915291151560051b840190910191506105959050611c00565b3461037c575f36600319011261037c5760206040516103e88152f35b3461037c57604036600319011261037c57611cd3614370565b6004355f525f5160206157a45f395f51905f5260205260405f209060018060a01b03165f52602052602060ff60405f2054166040519015158152f35b3461037c57611d1d366141b6565b905f52600360205260405f20805482101561037c57611d7591611d3f916141cc565b50611d4981614274565b9060ff611d836002611d5d60018501614274565b9301549260405195869560c0875260c0870190614335565b908582036020870152614335565b9160018060a01b038116604085015264ffffffffff8160a01c166060850152818160c81c161515608085015260d01c16151560a08301520390f35b3461037c575f36600319011261037c57602060405160018152f35b3461037c575f36600319011261037c57611df1614e45565b611df96149bf565b600160ff195f5160206157c45f395f51905f525416175f5160206157c45f395f51905f52557f62e78cea01bee320cd4e420270b5ea74000d11b0c9f74754ebdbfc544b05a2586020604051338152a1005b3461037c575f36600319011261037c5760205f54604051908152f35b3461037c575f36600319011261037c5760206040517f71f3d55856e4058ed06ee057d79ada615f65cdf5f9ee88181b914225088f834f8152f35b3461037c575f36600319011261037c5760206040517f92a19c77d2ea87c7f81d50c74403cb2f401780f3ad919571121efe2bdb427eb18152f35b3461037c57602036600319011261037c576004355f548110801590611f34575b610675575f5260026020526060600660405f20015464ffffffffff604051918181168352818160501c16602084015260781c166040820152f35b508015611efa565b3461037c575f36600319011261037c5760206040517fa49807205ce4d355092ef5a8a18f56e8913cf4a201fbe287825b095693c217758152f35b3461037c57602036600319011261037c57611f8f61435a565b6001600160a01b03811615611fb257611fa96020916143c0565b54604051908152f35b6322718ad960e21b5f525f60045260245ffd5b3461037c575f36600319011261037c5760206040516276a7008152f35b3461037c57602036600319011261037c576004355f548110801590612178575b610675575f52600360205260405f2080549061201d82614860565b9161202b6040519384614253565b8083526020830180925f5260205f205f915b83831061210157848660405191829160208301906020845251809152604083019060408160051b85010192915f905b82821061207b57505050500390f35b919360019193955060208091603f1989820301855287519060a0806120bc6120ac855160c0865260c0860190614335565b8686015185820388870152614335565b938780831b03604082015116604085015264ffffffffff606082015116606085015260808101511515608085015201511515910152960192019201859493919261206c565b600360206001926040516121148161421d565b61211d86614274565b815261212a858701614274565b8382015260ff6002870154868060a01b038116604084015264ffffffffff8160a01c166060840152818160c81c161515608084015260d01c16151560a082015281520192019201919061203d565b508015612002565b3461037c57602036600319011261037c57602061219e600435614990565b6040516001600160a01b039091168152f35b3461037c57606036600319011261037c576004356121cc614472565b906044356001600160401b03811161037c576121ec903690600401614445565b91906121f66149bf565b5f54821080159061266f575b61067557335f52600b60205260ff60405f20541661266057815f52600260205264ffffffffff600660405f200154612245600260ff8360c81c16610d8a816144f0565b60781c164211612625575f82815260056020908152604080832033845290915290205460ff166125f0575f82815260066020908152604080832033845290915290205460ff161561259f5760058310612567576101f48311612530575f82815260056020908152604080832033845290915290819020805460ff1916600117905551936122d185614238565b3385526020850190801515918281526122eb36878661449c565b9060408801918252606088019164ffffffffff4216835260808901915f8352875f52600460205260405f208054600160401b811015610a0357612333916001820181556141cc565b9a909a61251d57518a5491516001600160a81b03199092166001600160a01b03919091161790151560a01b60ff60a01b1617895551805160018a01916001600160401b038211610a035761238b82610f1485546141e5565b602090601f831160011461248c579a64ffffffffff936123e98486957fc4ce3f0cdcc6c3a55938650ba7706e6b5d9f686f108fdce6a6bb68424fe1ed759d9e9f956002965f926124815750508160011b915f199060031b1c19161790565b90555b019351161664ffffffffff1983541617825551151565ff000000000082549160281b169065ff000000000019161790555f1461246157835f526002602052600760405f200161243b815461458c565b90555b61245c604051928392835260406020840152339660408401916145e0565b0390a3005b835f526002602052600860405f200161247a815461458c565b905561243e565b015190505f806107f4565b90601f19831691845f52815f20925f5b8181106125055750846002947fc4ce3f0cdcc6c3a55938650ba7706e6b5d9f686f108fdce6a6bb68424fe1ed759d9e9f9464ffffffffff98948998600195106124ed575b505050811b0190556123ec565b01515f1960f88460031b161c191690558f80806124e0565b9293602060018192878601518155019501930161249c565b634e487b7160e01b5f525f60045260245ffd5b60405162461bcd60e51b815260206004820152600f60248201526e526561736f6e20746f6f206c6f6e6760881b6044820152606490fd5b60405162461bcd60e51b815260206004820152601060248201526f1499585cdbdb881d1bdbc81cda1bdc9d60821b6044820152606490fd5b60405162461bcd60e51b8152602060048201526024808201527f4d7573742068617665207375626d69747465642065766964656e636520746f20604482015263766f746560e01b6064820152608490fd5b60405162461bcd60e51b815260206004820152600d60248201526c105b1c9958591e481d9bdd1959609a1b6044820152606490fd5b60405162461bcd60e51b8152602060048201526013602482015272159bdd1a5b99c81c195c9a5bd908195b991959606a1b6044820152606490fd5b63473250af60e01b5f5260045ffd5b508115612202565b3461037c575f36600319011261037c57602060ff5f5160206157c45f395f51905f5254166040519015158152f35b3461037c57602036600319011261037c576004355f908152600260208190526040909120805460018201546001600160a01b0390811693911691906126eb908201614274565b906126f860038201614274565b60048201549060ff821691600584015460068501548060c81c60ff16600787015491600888015493600160a01b6001900360098a01541695600a8a015497600b8b0161274390614274565b9a600c01549b6040519e8f9e8f908152602001528d6040810161028090526102800161276e91614335565b8d810360608f015261277f91614335565b98612789816144f0565b60808d015260a08c019060081c60ff16906127a39161450e565b60c08b015264ffffffffff811660e08b01528060281c64ffffffffff166101008b01528060501c64ffffffffff166101208b01528060781c64ffffffffff166101408b015260a01c64ffffffffff166101608a0152612801816144f0565b6101808901526101a08801526101c08701526101e086015261020085015283810361022085015261283191614335565b9060ff8116151561024084015260081c64ffffffffff166102608301520390f35b3461037c575f36600319011261037c576020600154604051908152f35b3461037c575f36600319011261037c576105a9604051612890604082614253565b60058152640312e302e360dc1b6020820152604051918291602083526020830190614335565b3461037c575f36600319011261037c577f00000000000000000000000000000000000000000000000000000000000000006001600160a01b0316300361290d5760206040515f5160206157845f395f51905f528152f35b63703e46dd60e11b5f5260045ffd5b3461037c575f36600319011261037c576020604051621275008152f35b604036600319011261037c5761294d61435a565b6024356001600160401b03811161037c5761296c9036906004016144d2565b6001600160a01b037f000000000000000000000000000000000000000000000000000000000000000016308114908115612ae4575b5061290d576129ae614e45565b6040516352d1902d60e01b81526001600160a01b0383169290602081600481875afa5f9181612ab0575b506129f05783634c9c8ce360e01b5f5260045260245ffd5b805f5160206157845f395f51905f52859203612a9e5750813b15612a8c575f5160206157845f395f51905f5280546001600160a01b031916821790557fbc7cd75a20ee27fd9adebab32041f755214dbc6bffa90cc0225b39da2e5c2d3b5f80a2815115612a74575f808360206104e795519101845af4612a6e614d34565b916153bc565b505034612a7d57005b63b398979f60e01b5f5260045ffd5b634c9c8ce360e01b5f5260045260245ffd5b632a87526960e21b5f5260045260245ffd5b9091506020813d602011612adc575b81612acc60209383614253565b8101031261037c575190856129d8565b3d9150612abf565b5f5160206157845f395f51905f52546001600160a01b031614159050836129a1565b3461037c57602036600319011261037c57604064ffffffffff612b2f612b2a61435a565b6147cc565b835191151582529091166020820152f35b3461037c57602036600319011261037c576004355f52600e602052602060405f2054604051908152f35b3461037c57604036600319011261037c57612b83614370565b6004355f52600560205260405f209060018060a01b03165f52602052602060ff60405f2054166040519015158152f35b3461037c576104e7612bc436614386565b9060405192612bd4602085614253565b5f8452614877565b3461037c57608036600319011261037c576004356024356001600160401b03811161037c57612c0f903690600401614445565b6044929192356001600160401b03811161037c57612c31903690600401614445565b9190936064359485151580960361037c57612c4a6149bf565b5f548510801590612f19575b61067557335f52600b60205260ff60405f20541661266057845f52600260205260ff600660405f20015460c81c16612c8d816144f0565b8015908115612f04575b8115612ef0575b5015612e9f57845f526003602052603260405f20541015612e6157600a8310612e24576103e88311612de8577f1167fd75531e34b35f06a3151ae4dbe9c264120eb87ff3b446366f3147fbe51293612d89612d9793875f52600660205260405f2060018060a01b0333165f5260205260ff60405f20541615612da5575b612d77604051612d2a8161421d565b612d3536898561449c565b8152612d4236868861449c565b602082015233604082015264ffffffffff421660608201525f60808201528a60a0820152895f52600360205260405f20614b1d565b604051956060875260608701916145e0565b9184830360208601526145e0565b9360408201528033940390a3005b875f52600660205260405f2060018060a01b0333165f5260205260405f20600160ff19825416179055875f526007602052612de33360405f20614ac1565b612d1b565b60405162461bcd60e51b81526020600482015260146024820152734465736372697074696f6e20746f6f206c6f6e6760601b6044820152606490fd5b60405162461bcd60e51b815260206004820152601560248201527411195cd8dc9a5c1d1a5bdb881d1bdbc81cda1bdc9d605a1b6044820152606490fd5b60405162461bcd60e51b8152602060048201526016602482015275115d9a59195b98d9481b1a5b5a5d081c995858da195960521b6044820152606490fd5b60405162461bcd60e51b815260206004820152602360248201527f43616e6e6f74207375626d69742065766964656e636520617420746869732074604482015262696d6560e81b6064820152608490fd5b60039150612efd816144f0565b1487612c9e565b9050612f0f816144f0565b6001811490612c97565b508415612c56565b3461037c575f36600319011261037c576020604051600a8152f35b3461037c575f36600319011261037c57612f54614e45565b5f5160206157c45f395f51905f525460ff811615612fab5760ff19165f5160206157c45f395f51905f52557f5db9ee0a495bf2e6ff9c91a7834c1ba4fdd244a5e8aa4e537bd38aeae4b073aa6020604051338152a1005b638dfc202b60e01b5f5260045ffd5b3461037c57604036600319011261037c57612fd361435a565b6001600160a01b03165f9081526008602052604090208054602435919082101561037c5760209161300391614430565b90549060031b1c604051908152f35b3461037c57602036600319011261037c5760043561302e6149bf565b5f548110801590613231575b61067557805f52600260205260405f206006810190815460ff8160c81c16613061816144f0565b158061321d575b613208575b5081549160ff8360c81c1691613082836144f0565b600183036131c357600c015460081c64ffffffffff16421061317e57835f52600760205260405f20541561313957837f08cd40254a37bbf5425ba9c605ae95c09f6f6abd3389a418dc2b2b974b14eea460606020947ffc59aabd5d0a004256121c3426ef2bf5c28ecb2058eef3b5179672ec562ee5c496600160c91b9060ff60c81b19161780955560405190613117816144f0565b8152600286820152336040820152a264ffffffffff6040519160781c168152a2005b60405162461bcd60e51b815260206004820152601e60248201527f4e6f2065766964656e6365207375626d69747465727320746f20766f746500006044820152606490fd5b60405162461bcd60e51b815260206004820152601760248201527f566f74696e672074696d65206e6f7420726561636865640000000000000000006044820152606490fd5b60405162461bcd60e51b815260206004820152601c60248201527f44697370757465206e6f7420696e2061637469766520737461747573000000006044820152606490fd5b60ff60c81b1916600160c81b1782558361306d565b5064ffffffffff8160281c16421015613068565b50801561303a565b3461037c57604036600319011261037c57613252614370565b336001600160a01b0382160361326e576104e790600435615119565b63334bd91960e11b5f5260045ffd5b3461037c57604036600319011261037c576104e760043561329c614370565b906132c26104dd825f525f5160206157a45f395f51905f52602052600160405f20015490565b615075565b3461037c57604036600319011261037c576004356132e3614370565b6132eb614e45565b6001600160a01b0381169081156134385761330583614990565b306001600160a01b03909116036133f357825f52600e60205260405f205490815f52600260205260405f2060086007820154910154036133b6576001600160a01b0390613353908590614d63565b168061336c5783637e27328960e01b5f5260045260245ffd5b839030810361339c57507f74108aef2feeb8156bcd37cc709d697591bc1e5c763cf058316fca57be42a0fd5f80a4005b906364283d7b60e01b5f523060045260245260445260645ffd5b60405162461bcd60e51b8152602060048201526015602482015274139bdd0818481d1a5948191a5cdc1d5d1948139195605a1b6044820152606490fd5b60405162461bcd60e51b815260206004820152601960248201527f4e4654206e6f74206f776e656420627920636f6e7472616374000000000000006044820152606490fd5b60405162461bcd60e51b815260206004820152601960248201527f496e76616c696420726563697069656e742061646472657373000000000000006044820152606490fd5b3461037c57602036600319011261037c5760206134b46004355f525f5160206157a45f395f51905f52602052600160405f20015490565b604051908152f35b3461037c576104e76134cd36614386565b91614600565b602036600319011261037c576004356001600160401b03811161037c578060040190610160600319823603011261037c5761350c6149bf565b6135146149e6565b335f52600b60205260ff60405f20541661266057335f52600a60205264ffffffffff60405f205416613e1a575b6001600160a01b036135528361459a565b16158015613e00575b613d52576044810191600a61357084836145ae565b9050108015613dea575b613ddb5761010482019261358e8483614a1e565b61012485019391506135a08483614a1e565b91905014801590613db6575b8015613da1575b8015613d8c575b613d7d5760e4840164ffffffffff6135d182614a53565b1615613d6e5764ffffffffff6135e682614a53565b16620151808110908115613d61575b50613d525760a4850161360781614a65565b613d24575b5f54936136188561458c565b5f90815585815260026020526040902080546001600160a01b03191633178155926136428561459a565b6001850180546001600160a01b0319166001600160a01b03909216919091179055602488019161367283876145ae565b60028701916001600160401b038211610a035761369382610f1485546141e5565b5f90601f8311600114613cbb5791806136c6926136cf9695945f92613cb05750508160011b915f199060031b1c19161790565b90555b866145ae565b60038601916001600160401b038211610a03576136f082610f1485546141e5565b5f90601f8311600114613c4c5761371d92915f9183613c415750508160011b915f199060031b1c19161790565b90555b606488013590600782101561037c576004850161373c836144f0565b805460848b0135600481101561037c5761ff009060081b169060ff85169061ffff19161717905560c48901359081600587015561377885614a65565b90613793600c880192839060ff801983541691151516179055565b64ffffffffff6137a282614a53565b1615613c37576137b190614a53565b600664ffffffffff421697019164ffffffffff881664ffffffffff1984541617835562015180880164ffffffffff81116113d65764ffffffffff69ffffffffff000000000085549260281b16931664ffffffffff8469ffffffffff00000000001984161760281c160164ffffffffff81116113d65764ffffffffff62093a80918160501b9060501b1693805465ffffffffff0086886effffffffffffffffffff0000000000198816171760481c169065ffffffffff0019161780915560081c16019164ffffffffff83116113d657621275009364ffffffffff938460781b9060781b169273ffffffffffffffffffffffffffffff0000000000191617171780845560781c160164ffffffffff81116113d657815460a09190911b64ffffffffff60a01b1665ffffffffffff60a01b199091161790555f87815260066020908152604080832033845290915290205460ff1615613bf4575b929761014401925f5b61391b8b88614a1e565b9050811015613a4357613938816139328d8a614a1e565b90614b02565b9190613948826139328d8c614a1e565b9390613954898c614a1e565b859391931015613a2f57613a1d6139ba7f1167fd75531e34b35f06a3151ae4dbe9c264120eb87ff3b446366f3147fbe512938f95986139b161399c60019b8b60051b01614a65565b98604051966139aa8861421d565b369161449c565b8552369161449c565b91602081019283523360408201528c60608201525f608082015260a081019515158652845f5260036020526139f28160405f20614b1d565b5191519451151594613a0f60405193606085526060850190614335565b908382036020850152614335565b9360408201528033940390a301613911565b634e487b7160e01b5f52603260045260245ffd5b5090858792868b335f52600860205260405f2091825492600160401b841015610a035783613a79916001613aec96018155614430565b81549060031b9089821b915f19901b1916179055335f52600960205260405f20613aa3815461458c565b9055335f52600a60205264ffffffffff60405f20911664ffffffffff19825416179055613acf856144f0565b845f52600c60205260405f20613ae5815461458c565b9055614a65565b15613bee57613afb8134614d27565b80613b90575b507fe9f78c9b039e3f91d4b863bae0939e4f49701a27f81a8f183ff670eed3d049e3828592613b3f602098613b39613b53989761459a565b936145ae565b9690604051976060895260608901916145e0565b94613b5d816144f0565b8689015260408601526001600160a01b031693339381900390a460015f5160206157e45f395f51905f5255604051908152f35b5f80808093969596335af1613ba3614d34565b5015613bb25785929192613b01565b60405162461bcd60e51b8152602060048201526014602482015273115e18d95cdcc81c99599d5b990819985a5b195960621b6044820152606490fd5b34613afb565b865f52600660205260405f2060018060a01b0333165f5260205260405f20600160ff19825416179055865f526007602052613c323360405f20614ac1565b613908565b5062278d006137b1565b013590508d806107f4565b601f19831691845f5260205f20925f5b818110613c985750908460019594939210613c7f575b505050811b019055613720565b01355f19600384901b60f8161c191690558c8080613c72565b91936020600181928787013581550195019201613c5c565b013590508f806107f4565b601f19831691845f5260205f20925f5b818110613d0c57509160019391856136cf9897969410613cf3575b505050811b0190556136c9565b01355f19600384901b60f8161c191690558e8080613ce6565b91936020600181928787013581550195019201613ccb565b60c48601358015908115613d48575b501561360c57631c61f50160e31b5f5260045ffd5b9050341088613d33565b630ec85a8b60e11b5f5260045ffd5b6276a700915011876135f5565b64ffffffffff62278d006135e6565b630258a61f60e01b5f5260045ffd5b506032613d998683614a1e565b9050116135ba565b506001613dae8683614a1e565b9050106135b3565b50613dc18582614a1e565b9050613dd1610144860183614a1e565b91905014156135ac565b630744d66960e41b5f5260045ffd5b506103e8613df884836145ae565b90501161357a565b50336001600160a01b03613e138461459a565b161461355b565b335f52600a602052613e3e64ffffffffff60405f20541664ffffffffff4216614570565b62093a8064ffffffffff821610613e555750613541565b613e6464ffffffffff91614555565b634f58510d60e01b5f521660045260245ffd5b3461037c57604036600319011261037c57613e9061435a565b602435613e9c81614990565b33151580613f50575b80613f2d575b613f1a5781906001600160a01b0384811691167f8c5be1e5ebec7d5bd14f71427d1e84f3dd0314c0f7b2291e5b200ac8c7c3b9255f80a45f9081525f5160206158045f395f51905f526020526040902080546001600160a01b0319166001600160a01b03909216919091179055005b63a9fbf51f60e01b5f523360045260245ffd5b50613f37816143f8565b335f908152602091909152604090205460ff1615613eab565b506001600160a01b038116331415613ea5565b3461037c57602036600319011261037c57602061219e600435613f8581614990565b505f9081525f5160206158045f395f51905f5260205260409020546001600160a01b031690565b3461037c575f36600319011261037c576040515f5f5160206157645f395f51905f5254613fd8816141e5565b8084529060018116908115611c7a5750600114613fff576105a98361059581850382614253565b5f5160206157645f395f51905f525f9081527f37c58c799b6609234b945e882912ee9ad34948a1dfaa20a97485e1a7752bbf81939250905b80821061404f57509091508101602001610595611c00565b919260018160209254838588010152019101909291614037565b3461037c575f36600319011261037c57602060405160058152f35b3461037c57614092366141b6565b905f52600460205260405f20805482101561037c5760ff916140b3916141cc565b50805490826140fa60026140c960018501614274565b9301549260405195869560018060a01b038116875260a01c161515602086015260a0604086015260a0850190614335565b9164ffffffffff8116606085015260281c16151560808301520390f35b3461037c57602036600319011261037c576004359063ffffffff60e01b821680920361037c57602091632483248360e11b8114908115614159575b5015158152f35b6380ac58cd60e01b8114915081156141a5575b811561417a575b5083614152565b637965db0b60e01b811491508115614194575b5083614173565b6301ffc9a760e01b1490508361418d565b635b5e139f60e01b8114915061416c565b604090600319011261037c576004359060243590565b8054821015613a2f575f52600360205f20910201905f90565b90600182811c92168015614213575b60208310146141ff57565b634e487b7160e01b5f52602260045260245ffd5b91607f16916141f4565b60c081019081106001600160401b03821117610a0357604052565b60a081019081106001600160401b03821117610a0357604052565b90601f801991011681019081106001600160401b03821117610a0357604052565b9060405191825f825492614287846141e5565b80845293600181169081156142f257506001146142ae575b506142ac92500383614253565b565b90505f9291925260205f20905f915b8183106142d65750509060206142ac928201015f61429f565b60209193508060019154838589010152019101909184926142bd565b9050602092506142ac94915060ff191682840152151560051b8201015f61429f565b5f5b8381106143255750505f910152565b8181015183820152602001614316565b9060209161434e81518092818552858086019101614314565b601f01601f1916010190565b600435906001600160a01b038216820361037c57565b602435906001600160a01b038216820361037c57565b606090600319011261037c576004356001600160a01b038116810361037c57906024356001600160a01b038116810361037c579060443590565b6001600160a01b03165f9081527f80bb2b638cc20bc4d0a60d66940f3ab4a00c1d7b313497ca82fb0b4ab00793036020526040902090565b6001600160a01b03165f9081527f80bb2b638cc20bc4d0a60d66940f3ab4a00c1d7b313497ca82fb0b4ab00793056020526040902090565b8054821015613a2f575f5260205f2001905f90565b9181601f8401121561037c578235916001600160401b03831161037c576020838186019501011161037c57565b60243590811515820361037c57565b6001600160401b038111610a0357601f01601f191660200190565b9291926144a882614481565b916144b66040519384614253565b82948184528183011161037c578281602093845f960137010152565b9080601f8301121561037c578160206144ed9335910161449c565b90565b600711156144fa57565b634e487b7160e01b5f52602160045260245ffd5b9060048210156144fa5752565b3461037c575f36600319011261037c576020604051620151808152f35b3461037c575f36600319011261037c57602060405162093a808152f35b64ffffffffff1662093a80039064ffffffffff82116113d657565b9064ffffffffff8091169116039064ffffffffff82116113d657565b5f1981146113d65760010190565b356001600160a01b038116810361037c5790565b903590601e198136030182121561037c57018035906001600160401b03821161037c5760200191813603831361037c57565b908060209392818452848401375f828201840152601f01601f1916010190565b9091906001600160a01b0383168015611577578261461d81615250565b9133151580614719575b506001600160a01b0383169561464190876146dd576143c0565b60018154019055815f527f80bb2b638cc20bc4d0a60d66940f3ab4a00c1d7b313497ca82fb0b4ab007930260205260405f20816bffffffffffffffffffffffff60a01b825416179055857fddf252ad1be2c89b69c2b068fc378daa952ba7f163c4a11628f55a4df523b3ef5f80a4506001600160a01b03168083036146c557505050565b6364283d7b60e01b5f5260045260245260445260645ffd5b5f8481525f5160206158045f395f51905f526020526040902080546001600160a01b031916905561470d856143c0565b80545f190190556143c0565b90915080614766575b1561472f5783905f614627565b836001600160a01b03831661475057637e27328960e01b5f5260045260245ffd5b63177e802f60e01b5f523360045260245260445ffd5b506001600160a01b038216331480156147aa575b8061472257505f8481525f5160206158045f395f51905f5260205260409020546001600160a01b03163314614722565b506147b4826143f8565b335f908152602091909152604090205460ff1661477a565b6001600160a01b03165f818152600b602052604090205460ff1661485457805f52600a60205264ffffffffff60405f2054161561484c575f52600a60205261482664ffffffffff60405f20541664ffffffffff4216614570565b62093a8064ffffffffff82161061483f57506001905f90565b61484890614555565b5f91565b506001905f90565b505f9064ffffffffff90565b6001600160401b038111610a035760051b60200190565b9291614884818386614600565b813b614891575b50505050565b604051630a85bd0160e11b81523360048201526001600160a01b03948516602482015260448101919091526080606482015292169190602090829081906148dc906084830190614335565b03815f865af15f918161494b575b5061491857506148f8614d34565b805190816149135782633250574960e11b5f5260045260245ffd5b602001fd5b6001600160e01b03191663757a42ff60e11b0161493957505f80808061488b565b633250574960e11b5f5260045260245ffd5b9091506020813d602011614988575b8161496760209383614253565b8101031261037c57516001600160e01b03198116810361037c57905f6148ea565b3d915061495a565b61499981615250565b906001600160a01b038216156149ad575090565b637e27328960e01b5f5260045260245ffd5b60ff5f5160206157c45f395f51905f5254166149d757565b63d93c066560e01b5f5260045ffd5b60025f5160206157e45f395f51905f525414614a0f5760025f5160206157e45f395f51905f5255565b633ee5aeb560e01b5f5260045ffd5b903590601e198136030182121561037c57018035906001600160401b03821161037c57602001918160051b3603831361037c57565b3564ffffffffff8116810361037c5790565b35801515810361037c5790565b601f8211614a7f57505050565b5f5260205f20906020601f840160051c83019310614ab7575b601f0160051c01905b818110614aac575050565b5f8155600101614aa1565b9091508190614a98565b8054600160401b811015610a0357614ade91600182018155614430565b81546001600160a01b0393841660039290921b91821b9390911b1916919091179055565b90821015613a2f57614b199160051b8101906145ae565b9091565b9190918054600160401b811015610a0357614b3d916001820181556141cc565b92909261251d5780519283516001600160401b038111610a0357614b65816111a984546141e5565b602094601f8211600114614cc657614b969293949582915f926124815750508160011b915f199060031b1c19161790565b81555b6001810160208301518051906001600160401b038211610a0357614bc182610f1485546141e5565b602090601f8311600114614c5f579180614bf49260029695945f926124815750508160011b915f199060031b1c19161790565b90555b6040830151910180546060840151608085015160a09586015160ff60d01b90151560d01b1660ff60c81b91151560c81b919091166001600160d81b03199093166001600160a01b0390951694909417941b64ffffffffff60a01b169390931792909217179055565b90601f19831691845f52815f20925f5b818110614cae575091600193918560029897969410614c96575b505050811b019055614bf7565b01515f1960f88460031b161c191690555f8080614c89565b92936020600181928786015181550195019301614c6f565b601f19821695835f52805f20915f5b888110614d0f57508360019596979810614cf7575b505050811b018155614b99565b01515f1960f88460031b161c191690555f8080614cea565b91926020600181928685015181550194019201614cd5565b919082039182116113d657565b3d15614d5e573d90614d4582614481565b91614d536040519384614253565b82523d5f602084013e565b606090565b90614d6d81615250565b916001600160a01b03831680614e09575b6001600160a01b0382169182614df3575b505f8381527f80bb2b638cc20bc4d0a60d66940f3ab4a00c1d7b313497ca82fb0b4ab00793026020526040812080546001600160a01b031916841790557fddf252ad1be2c89b69c2b068fc378daa952ba7f163c4a11628f55a4df523b3ef9080a490565b614dfc906143c0565b600181540190555f614d8f565b5f8381525f5160206158045f395f51905f526020526040902080546001600160a01b0319169055614e39846143c0565b80545f19019055614d7e565b335f9081527fb16e88c42fd4e48df2dd6a2eabd6bc9aec654ec170056b470819f8892cc6431c602052604090205460ff1615614e7d57565b63e2517d3f60e01b5f52336004527fa49807205ce4d355092ef5a8a18f56e8913cf4a201fbe287825b095693c2177560245260445ffd5b5f8181525f5160206157a45f395f51905f526020908152604080832033845290915290205460ff1615614ee45750565b63e2517d3f60e01b5f523360045260245260445ffd5b6001600160a01b0381165f9081527fb7db2dd08fcb62d0c9e08c51941cae53c267786a0b75803fb7960902fc8ef97d602052604090205460ff16614fa4576001600160a01b03165f8181527fb7db2dd08fcb62d0c9e08c51941cae53c267786a0b75803fb7960902fc8ef97d60205260408120805460ff191660011790553391907f2f8788117e7eff1d82e926ec794901d17c78024a50270940304540a733656f0d8180a4600190565b505f90565b6001600160a01b0381165f9081527fb16e88c42fd4e48df2dd6a2eabd6bc9aec654ec170056b470819f8892cc6431c602052604090205460ff16614fa4576001600160a01b03165f8181527fb16e88c42fd4e48df2dd6a2eabd6bc9aec654ec170056b470819f8892cc6431c60205260408120805460ff191660011790553391907fa49807205ce4d355092ef5a8a18f56e8913cf4a201fbe287825b095693c21775907f2f8788117e7eff1d82e926ec794901d17c78024a50270940304540a733656f0d9080a4600190565b5f8181525f5160206157a45f395f51905f52602090815260408083206001600160a01b038616845290915290205460ff16615113575f8181525f5160206157a45f395f51905f52602090815260408083206001600160a01b0395909516808452949091528120805460ff19166001179055339291907f2f8788117e7eff1d82e926ec794901d17c78024a50270940304540a733656f0d9080a4600190565b50505f90565b5f8181525f5160206157a45f395f51905f52602090815260408083206001600160a01b038616845290915290205460ff1615615113575f8181525f5160206157a45f395f51905f52602090815260408083206001600160a01b0395909516808452949091528120805460ff19169055339291907ff6391f5c32d9c69d2a47ea670b442974b53935d1edc7fd64eb21e047a839171b9080a4600190565b156151bc57565b60405162461bcd60e51b815260206004820152601b60248201527f44697370757465206e6f7420696e20766f74696e6720706861736500000000006044820152606490fd5b61520a81614990565b505f527f0542a41881ee128a365a727b282c86fa859579490b9bb45aab8503648c8e790060205261523d60405f20614274565b5f60405161524c602082614253565b5290565b5f9081527f80bb2b638cc20bc4d0a60d66940f3ab4a00c1d7b313497ca82fb0b4ab007930260205260409020546001600160a01b031690565b60078101546008820154808211156152ac575050546001600160a01b0316905f90565b11156152c457600101546001600160a01b0316905f90565b503090600190565b60ff5f5160206158245f395f51905f525460401c16156152e857565b631afcd79f60e31b5f5260045ffd5b801561539c575f81805b615388575061530f81614481565b9061531d6040519283614253565b808252601f1961532c82614481565b013660208401375b80928015615381575f1982019182116113d6578193600a820660300192836030116113d65784511115613a2f57600a9260f81b6001600160f81b0319165f1a908401601f01530491615334565b5050905090565b90615394600a9161458c565b910480615301565b506040516153ab604082614253565b60018152600360fc1b602082015290565b906153e057508051156153d157602081519101fd5b63d6bda27560e01b5f5260045ffd5b81511580615411575b6153f1575090565b639996b31560e01b5f9081526001600160a01b0391909116600452602490fd5b50803b156153e9565b5f52600260205260405f2060078101546008820154145f146154585750604051615445604082614253565b600381526254696560e81b602082015290565b600981015490546001600160a01b0390811691160361549a5760405161547f604082614253565b600b81526a21b932b0ba37b9102bb7b760a91b602082015290565b6040516154a8604082614253565b600e81526d2932b9b837b73232b73a102bb7b760911b602082015290565b5f92918154916154d5836141e5565b926001811690811561551d57506001146154ee57505050565b90919293505f5260205f205f905b8382106155095750500190565b6001816020925484860152019101906154fc565b60ff191683525050811515909102019150565b5f52600260205260405f2060078101546008820154145f146155a5576144ed615597916040519283917f54696520726573756c7420696e2064697370757465207265736f6c7574696f6e60208401526101d160f51b604084015260026042840191016154c6565b03601f198101835282614253565b6144ed615597916040519283917f57696e6e6572206f662064697370757465207265736f6c7574696f6e3a20000060208401526002603e840191016154c6565b80511561574e576040516155fa606082614253565b604081527f4142434445464748494a4b4c4d4e4f505152535455565758595a61626364656660208201527f6768696a6b6c6d6e6f707172737475767778797a303132333435363738392b2f60408201528151600281018091116113d65760039004600281901b91906001600160fe1b038116036113d65760208201928383116113d65761569f61568985614481565b946156976040519687614253565b808652614481565b6020850190601f190136823781928251830191935b8281106156fe575050506003905106806001146156ea576002146156d9575b50815290565b603d60f81b5f19909101525f6156d3565b50613d3d60f01b600119909101525f6156d3565b60036004919592939501916001603f845182828260121c16880101518453828282600c1c16880101518385015382828260061c1688010151600285015316850101516003820153019391906156b4565b5060405161575d602082614253565b5f81529056fe80bb2b638cc20bc4d0a60d66940f3ab4a00c1d7b313497ca82fb0b4ab0079300360894a13ba1a3210667c828492db98dca3e2076cc3735a920a3ca505d382bbc02dd7bc7dec4dceedda775e58dd541e08a116c6c53815c0bd028192f7b626800cd5ed15c6e187e77e9aee88184c21f4f2182ab5827cb3b7e07fbedcd63f033009b779b17422d0df92223018b32b4d1fa46e071723d6817e2486d003becc55f0080bb2b638cc20bc4d0a60d66940f3ab4a00c1d7b313497ca82fb0b4ab0079304f0c57e16840df040f15088dc2f81fe391c3923bec73e23a9662efc9c229c6a0080bb2b638cc20bc4d0a60d66940f3ab4a00c1d7b313497ca82fb0b4ab0079301a26469706673582212200fe9b0acafebc9c292db77d2dcb6b7a059fa424cfc107a1cca60e258a14c877f64736f6c634300081e0033","linkReferences":{}},"methodIdentifiers":{"ADMIN_ROLE()":"75b238fc","DEFAULT_ADMIN_ROLE()":"a217fddf","DISPUTE_ACTIVATION_PERIOD()":"80af2e8a","DISPUTE_COOL_DOWN_PERIOD()":"a19fe026","DISPUTE_PERIOD()":"a5bbe22b","MAX_DESCRIPTION_LENGTH()":"9201ea0a","MAX_DISPUTE_PERIOD()":"6cb93d32","MAX_EVIDENCE_COUNT()":"f1d11c97","MAX_VOTE_REASON_LENGTH()":"bb2a2088","MIN_DESCRIPTION_LENGTH()":"420c6c21","MIN_DISPUTE_PERIOD()":"b195b01c","MIN_EVIDENCE_COUNT()":"88d0f1b4","MIN_VOTE_REASON_LENGTH()":"0397640c","MODERATOR_ROLE()":"797669c9","RESOLUTION_PERIOD()":"50f90594","RESOLVER_ROLE()":"78fab260","UPGRADE_INTERFACE_VERSION()":"ad3cb1cc","VOTING_PERIOD()":"b1610d7e","approve(address,uint256)":"095ea7b3","balanceOf(address)":"70a08231","canCreateDispute(address)":"46f4e14e","castVote(uint256,bool,string)":"62aef6f0","categoryCount(uint8)":"cc167790","createDispute((address,string,string,uint8,uint8,bool,uint256,uint40,string[],string[],bool[]))":"1f9f5224","disputeCounter()":"7d36f4d3","disputeEvidences(uint256,uint256)":"8cf6e09d","disputeToNftToken(uint256)":"d69613cc","disputeVotes(uint256,uint256)":"01ffdb01","disputes(uint256)":"564a565d","evidenceSubmitters(uint256,uint256)":"e65a9bf0","getApproved(uint256)":"081812fc","getCurrentTokenId()":"56189236","getDisputeBasicInfo(uint256)":"ae7dba1f","getDisputeEvidence(uint256)":"6abcd85d","getDisputeResults(uint256)":"c15a58da","getDisputeTimestamps(uint256)":"772006ff","getDisputeVotes(uint256)":"c4736092","getEvidenceSubmitters(uint256)":"c72ba057","getRoleAdmin(bytes32)":"248a9ca3","getUserDisputes(address)":"bfb0a55b","grantRole(bytes32,address)":"2f2ff15d","hasRole(bytes32,address)":"91d14854","hasSubmittedEvidence(uint256,address)":"9859d573","hasVoted(uint256,address)":"43859632","initialize(address)":"c4d66de8","isApprovedForAll(address,address)":"e985e9c5","isBlacklisted(address)":"fe575a87","lastDisputeTime(address)":"e92487a2","name()":"06fdde03","nftTokenToDispute(uint256)":"460e3952","ownerOf(uint256)":"6352211e","pause()":"8456cb59","paused()":"5c975abb","proxiableUUID()":"52d1902d","renounceRole(bytes32,address)":"36568abe","resolveDispute(uint256)":"c2b7b868","revokeRole(bytes32,address)":"d547741f","safeTransferFrom(address,address,uint256)":"42842e0e","safeTransferFrom(address,address,uint256,bytes)":"b88d4fde","setApprovalForAll(address,bool)":"a22cb465","setUserBlacklist(address,bool)":"ccddf0b0","startVoting(uint256)":"3d2f5bda","submitEvidence(uint256,string,string,bool)":"4231d0eb","supportsInterface(bytes4)":"01ffc9a7","symbol()":"95d89b41","tokenURI(uint256)":"c87b56dd","transferFrom(address,address,uint256)":"23b872dd","transferTieNFT(uint256,address)":"2ea1b54f","unpause()":"3f4ba83a","upgradeToAndCall(address,bytes)":"4f1ef286","userDisputeCount(address)":"c4a83a0e","userDisputes(address,uint256)":"3dc04159","version()":"54fd4d50"},"id":55}